S01800006D656469646F725F63696E7461322E302E737265632A
S11300000C9450000C946D000C946D000C946D00D5
S11300100C946D000C946D000C946D000C946D00A8
S11300200C946D000C946D000C946D000C946D0098
S11300300C946D000C946D000C946D000C946D0088
S11300400C946D000C946D000C946D000C946D0078
S11300500C946D000C946D000C946D000C946D0068
S11300600C946D000C946D00F300F700FB00FF008E
S1130070030107010B010F01130117011B011F01EC
S11300802301270139013D014101450149014D0188
S11300905101550159015D016101650169016D015C
S11300A011241FBECFEFD8E0DEBFCDBF11E0A0E02A
S11300B0B1E0E0ECF9E002C005900D92A831B1077F
S11300C0D9F721E0A8E1B1E001C01D92A832B2073E
S11300D0E1F70E94D7020C94DE040C94000088B16E
S11300E0806188B988B18F7E88B908958F7088B986
S11300F00E946F000895CF93C82F82958F700E943D
S113010076008C2F8F700E9476008DE08A95F1F72F
S11301100000CF910895CF93C82F82958F7080628D
S113012088B90E946F00CF70C062C8B90E946F0086
S11301308DE08A95F1F70000CF91089581E00E9447
S11301407B0083EF91E00197F1F700C00000089570
S113015085EA9EE00197F1F700C0000083E00E9469
S1130160760080E094E00197F1F700C0000083E09E
S11301700E94760091E29A95F1F7000083E00E94D4
S113018076008DE08A95F1F7000082E00E94760007
S11301909DE09A95F1F7000088E20E947B008CE0D4
S11301A00E947B000E949E0086E00E947B000895CE
S11301B0982F9F70807F29F4892F80680E947B008C
S11301C00895892F806C0E947B000895813009F482
S11301D046C0862F90E08E309105E8F5FC01EC5C7A
S11301E0FF4F0C94D80480E00E94D800089581E069
S11301F00E94D800089582E00E94D800089583E008
S11302000E94D800089584E00E94D800089585E0F3
S11302100E94D800089586E00E94D800089587E0DF
S11302200E94D800089588E00E94D800089589E0CB
S11302300E94D80008958AE00E94D80008958BE0B7
S11302400E94D80008958CE00E94D80008958DE0A3
S11302500E94D80008958EE00E94D8000895862F49
S113026090E08E309105E8F5FC01EE5BFF4F0C94B5
S1130270D80480E10E94D800089581E10E94D8004A
S1130280089582E10E94D800089583E10E94D80075
S1130290089584E10E94D800089585E10E94D80061
S11302A0089586E10E94D800089587E10E94D8004D
S11302B0089588E10E94D800089589E10E94D80039
S11302C008958AE10E94D80008958BE10E94D80025
S11302D008958CE10E94D80008958DE10E94D80011
S11302E008958EE10E94D80008950F931F93CF9331
S11302F0DF938A01D22F0E94E600C0E0CD1768F494
S1130300F801EC0FF11D80810E948B00CD1303C016
S113031080E10E94D800CF5FF1CFDF91CF911F9190
S11303200F910895CF93C42F0E94E6008C2F0E9452
S11303308B00CF9108955F926F927F928F929F92DC
S1130340AF92BF92CF92DF92EF92FF920F931F93DF
S1130350CF93DF93CDB7DEB72A970FB6F894DEBFFD
S11303600FBECDBFE82EF62E49015A01CA01B901CC
S11303700E948C03D62EC72E782E692E262F372F57
S1130380482F592F10E0211531054105510551F031
S1130390CA01B9012AE030E040E050E00E94B6040E
S11303A01F5FF1CF111101C011E06D2D7C2D872D40
S11303B0962D0E94BB039B01AC01C501B4010E94B0
S11303C01F034B015C0155245394051560F020E094
S11303D030E040E251E4C501B4010E9449044B01FC
S11303E05C015394F2CF512C5116B8F46D2D7C2D31
S11303F0872D962D2AE030E040E050E00E94B604BC
S1130400E1E0F0E0EC0FFD1FE50DF11D6083D22E5D
S1130410C32E742E652E5394E7CF1123A9F0E12F38
S1130420F0E0319781E090E08C0F9D1FE80FF91FF9
S11304304081405DDD24D394DF0C6F2D8E2D0E940E
S113044092011150FD2CE9CF8EE20E948B00F394AF
S1130450C501B4010E948C03101798F42AE030E01F
S113046040E050E00E94B604E1E0F0E0EC0FFD1F34
S1130470E10FF11D6083622F732F842F952F1F5F6F
S1130480EBCF0023A1F0E02FF0E0319781E090E082
S11304908C0F9D1FE80FF91F4081405D11E01F0D77
S11304A06F2D8E2D0E9492010150F12EEACF2A96D3
S11304B00FB6F894DEBF0FBECDBFDF91CF911F9171
S11304C00F91FF90EF90DF90CF90BF90AF909F90EF
S11304D08F907F906F905F90089560911801709154
S11304E01901072E000C880B990B0E94BD03209163
S11304F000013091010140910201509103010E94D9
S113050049046093240170932501809326019093FC
S1130510270185B18B7F85B96091240170912501F4
S1130520809126019091270120E030E040EC5FE3C8
S11305300E94490460932001709321018093220159
S11305409093230108950F9384E20E948B002091DD
S1130550200130912101409122015091230102E0B8
S113056061E080E00E949B0128E044E051E068E003
S113057080E00E94750122E04DE051E060E081E0FE
S11305800E9475012091240130912501409126019A
S11305905091270162E081E00E949B0126E040E146
S11305A051E06AE081E00E9475010F9108958FEF98
S11305B087B984B1846084B98AB1877F8AB90E947B
S11305C0A80089B1887090E090931F0180931E0168
S11305D083EF91E00197F1F700C0000089B18870C2
S11305E090E090931D0180931C0120911E01309195
S11305F01F0182179307C1F480911A0190911B0186
S11306002817390789F0232B61F00E946D0280912D
S11306101801909119010196909319018093180182
S113062003C085B1846085B980911E0190911F013A
S113063090931B0180931A010E94A302C2CF5058C9
S1130640BB27AA270E9437030C940F040E940104BD
S113065038F00E94080420F039F49F3F19F426F47E
S11306600C94FE030EF4E095E7FB0C94F803E92FD9
S11306700E94200458F3BA1762077307840795078A
S113068020F079F4A6F50C9442040EF4E0950B2EB8
S1130690BA2FA02D0B01B90190010C01CA01A001D0
S11306A01124FF27591B99F0593F50F4503E68F12B
S11306B01A16F040A22F232F342F4427585FF3CF6C
S11306C0469537952795A795F0405395C9F77EF43D
S11306D01F16BA0B620B730B840BBAF09150A1F086
S11306E0FF0FBB1F661F771F881FC2F70EC0BA0F0C
S11306F0621F731F841F48F4879577956795B79594
S1130700F7959E3F08F0B0CF9395880F08F099278E
S1130710EE0F9795879508950E94280488F09F57B7
S113072098F0B92F9927B751B0F0E1F0660F771F11
S1130730881F991F1AF0BA95C9F714C0B13091F007
S11307400E944204B1E008950C944204672F782F6C
S11307508827B85F39F0B93FCCF3869577956795CC
S1130760B395D9F73EF490958095709561957F4F38
S11307708F4F9F4F0895E89409C097FB3EF49095DE
S11307808095709561957F4F8F4F9F4F9923A9F066
S1130790F92F96E9BB279395F695879577956795F5
S11307A0B795F111F8CFFAF4BB0F11F460FF1BC039
S11307B06F5F7F4F8F4F9F4F16C0882311F096E9CC
S11307C011C0772321F09EE8872F762F05C066237A
S11307D071F096E8862F70E060E02AF09A95660F33
S11307E0771F881FDAF7880F9695879597F90895EC
S11307F097F99F6780E870E060E008959FEF80ECD0
S1130800089500240A941616170618060906089572
S113081000240A9412161306140605060895092ED8
S11308200394000C11F4882352F0BB0F40F4BF2B47
S113083011F460FF04C06F5F7F4F8F4F9F4F089587
S113084057FD9058440F551F59F05F3F71F047957D
S1130850880F97FB991F61F09F3F79F08795089562
S1130860121613061406551FF2CF4695F1DF08C081
S1130870161617061806991FF1CF8695710561059E
S113088008940895E894BB2766277727CB0197F946
S113089008950E945C040C940F040E94010438F033
S11308A00E94080420F0952311F00C94F8030C9492
S11308B0FE0311240C9443040E94200470F3959FBA
S11308C0C1F3950F50E0551F629FF001729FBB2743
S11308D0F00DB11D639FAA27F00DB11DAA1F649FDF
S11308E06627B00DA11D661F829F2227B00DA11D92
S11308F0621F739FB00DA11D621F839FA00D611D18
S1130900221F749F3327A00D611D231F849F600D38
S1130910211D822F762F6A2F11249F5750409AF061
S1130920F1F088234AF0EE0FFF1FBB1F661F771FED
S1130930881F91505040A9F79E3F510580F00C94B8
S1130940F8030C9443045F3FE4F3983ED4F3869594
S113095077956795B795F795E7959F5FC1F7FE2B58
S1130960880F911D9695879597F90895A1E21A2EFF
S1130970AA1BBB1BFD010DC0AA1FBB1FEE1FFF1F3F
S1130980A217B307E407F50720F0A21BB30BE40B8F
S1130990F50B661F771F881F991F1A9469F76095D6
S11309A07095809590959B01AC01BD01CF01089590
S11309B0EE0FFF1F0590F491E02D0994F894FFCFFA
S11309C0A8C6CB3F494E472E414C444F00443D00FE
S10B09D04D4554524F53000041
S9030000FC
